:100E51005A61646174616B2033207573706A6573C4
:100E61006E6F206E61707261766C6A656E2E0A0A11
:100E7100004D656D6F72696A61206A6520697370E2
:100E81007261766E612E0A0A004D656D6F72696A34
:100E910061206E696A65206973707261766E612E78
:100EA1000A0A00497A6D6A6572656E61206A652079
:100EB10074656D7065726174757261206F6420254F
:0F0EC1006420737475706E6A6576612E0A0A007C
:100D2400C200758920758DF4758BF4D28E75985236
:100D34007BFF7A0E7951120862900000AF82AE8375
:100D4400D3EF94FFEE947F500F74AAF0E064AA608E
:100D540004D2008003A380E47BFF2000067A0E798E
:100D64007280047A0E798A1208627F02120FC97F98
:100D7400EE120FEA758921E4F58AF58CC2B9D2A97D
:100D8400D2AFD28C120F3D7C007D02120B5C8E24FC
:100D94008F257BFF7A0E79A485242985252A1208BC
:100DA40062C3E525941EE524648094805002C293B6
:100DB400D3E5259420E5246480948040C7D29380B1
:010DC400C36B
:100C7500BF6C087522807523008009BF6406752244
:100C850080752301ED24D0B40A004003020D2390A2
:100C95000CA275F003A4C58325F0C58373020CC0AF
:100CA500020CCA020CD4020CDE020CE8020CF202A1
:100CB5000CFC020D06020D10020D1A8523828522F9
:100CC500837477F0228523828522837414F022852C
:100CD500238285228374B3F022852382852283743F
:100CE500B6F02285238285228374D4F0228523825F
:100CF50085228374E6F02285238285228374E7F0BA
:100D0500228523828522837434F0228523828522DD
:0E0D15008374F7F02285238285228374F6F022
:010D230022AD
:020F7A00AD07C1
:100F7C00E4FBC29174017E00A803088005C333CE44
:100F8C0033CED8F9FFEDF582EF558224FF9290D243
:050F9C00910BBB08DD14
:010FA100222D
:020FC900AC0773
:100FCB00C292D2927F0C120F7AAF04120F7AC29296
:0E0FDB00E4FFFE0FBF00010EBE02F8BFBCF522
:010FE90022E5
:0A0FEA00C292D292120F7AC2922234
:100F3D00E4F526F527C292D2927FAA120F7AD290AB
:100F4D00E4FDC29130901974017E00A8050880055A
:100F5D00C333CE33CED8F92527F527EE3526F52622
:0C0F6D00D2910DBD09DCC292AE26AF2768
:010F79002255
:080FF4000210000002120000CF
:03000B00020ED012
:0D0ED000C0E0C0F0C083C082C0D075D00863
:100EDD000511E51170020510640E451070470513DC
:100EED00E51370020512D39463E51264809480407B
:100EFD0006751200751300AE12AF137C007D0A1239
:100F0D000B5CEF2430FD7F6C120C75AE12AF137CB1
:100F1D00007D0A120B5CED2430FD7F64120C75759B
:050F2D00100075110029
:0B0F3200D0D0D082D083D0F0D0E032CD
:03000000020DC529
:0C0DC500787FE4F6D8FD758139020E0C31
:100B5C00C2D5EC30E709B2D5E4C39DFDE49CFCEEB4
:100B6C0030E715B2D5E4C39FFFE49EFE120BEAC337
:100B7C00E49DFDE49CFC8003120BEA30D507C3E432
:060B8C009FFFE49EFE2223
:10080000E5352429F8E605352278263008027829CE
:10081000E475F001120C3F020B922001EB7F2ED207
:10082000018018EF540F2490D43440D4FF30050BCE
:10083000EF24BFB41A0050032461FFE536600215AF
:10084000360539E5397002053830080D7826E4752B
:10085000F001120C3FEF020BD8020FA27403D20872
:100860008003E4C208F5358B268A278928E4F5360B
:10087000F538F539E53660077F2012083B80F575BD
:1008800037FFC202C201C203C204C206C207C209C4
:10089000120809FF700D3008057F0012084CAF39AF
:1008A000AE3822B4255FC2D5C205120809FF24D094
:1008B000B40A00501A75F00A783630D50508B6FF2C
:1008C0000106C6A426F620D5047002D20480D924DD
:1008D000CFB41A00EF5004C2E5D205020A4CD2028E
:1008E00080C6D20180C0D20380BCD2D580BAD206E5
:1008F00080B47F2012083B2003077401B536004006
:10090000F1120800FF12083B020874D209D20780D6
:1009100095120800FB120800FA120800F94A4B7001
:1009200006791D7A0B7BFF20032EE536602A7E00B8
:100930008E82758300120BAB60060EEE653770F089
:10094000C2D5EBC0E0EAC0E0E9C0E0EE120A93D005
:10095000E0F9D0E0FAD0E0FB120B92FF60AAEBC006
:10096000E0EAC0E0E9C0E012083BD0E02401F9D0A1
:10097000E03400FAD0E0FBE5370460DCD537D980FD
:10098000877BFF7A0A798FD203809C791080027965
:1009900008C207C2098008D2D5790A8004790AC240
:1009A000D5E537047002F537E4FAFDFEFF120800C2
:1009B000FC7B08200213120800FD7B1030010A1294
:1009C0000800FE120800FF7B20EC3382D592D55040
:1009D00013C3E43001069FFFE49EFEE42002039D62
:1009E000FDE49CFCE4CBF8C202EC700CCFCECDCC85
:1009F000E824F8F870F38017C3EF33FFEE33FEED11
:100A000033FDEC33FCEB33FB994002FB0FD8E9EBF1
:100A1000300205F8D0E0C448B202C0E00AEC4D4E06
:100A20004F78207B0070C2EAB5370040BCC0E012AE
:100A30000A95D0F0D0E0200204C4C0E0C4B202C0E5
:100A4000F0120824D0F0D5F0EB020874120C4F0914
:100A50001153098B5808E24C08DE42098F4F099761
:0F0A60004409974908F743099D550981460981C3
:100A6F00450981470B3D5008E62D08EA2E090D2B4D
:100A7F0008EE23090B200B262A08A64800000905BB
:100A8F003F3F3F00790AA2D5200414300609B91060
:100A9F00020404B9080104A2D52007025001042062
:100AAF0003689203B536005034C0E07F203004193C
:100ABF007F30A20372077206500F120AECC203C2F4
:100ACF0007C206C2097F30800F300603E9C0E0126B
:100ADF00083B300603D0E0F9D0E0B536CC3006172E
:100AEF007F30B9100C12083B7F583005077F788094
:100AFF0003B9080312083B3003057F2D02083B7F23
:100B0F00202009F87F2B2007F322920380CF286E35
:100B1F00756C6C2900D2021208003002F8C20278FC
:100B2F003630D50108F60208A62D50434958120851
:100B3F00002403B405004001E4900B389312082CF5
:0D0B4F00743A12082CD20475360402098B8A
:100DD100020D24E493A3F8E493A34003F68001F207
:100DE10008DFF48029E493A3F85407240CC8C33323
:100DF100C4540F4420C8834004F456800146F6DFF2
:100E0100E4800B0102040810204080900FF4E47E7E
:100E1100019360BCA3FF543F30E509541FFEE493E6
:100E2100A360010ECF54C025E060A840B8E493A3AD
:100E3100FAE493A3F8E493A3C8C582C8CAC583CAD8
:100E4100F0A3C8C582C8CAC583CADFE9DEE780BE90
:010FFC0000F4
:100B9200BB010689828A83E0225002E722BBFE0261
:090BA200E32289828A83E4932294
:100BAB00BB010CE58229F582E5833AF583E02250FF
:100BBB0006E92582F8E622BBFE06E92582F8E22249
:0D0BCB00E58229F582E5833AF583E4932263
:100BD800BB010689828A83F0225002F722BBFE01FC
:020BE800F322F6
:100BEA00BC000BBE0029EF8DF084FFADF022E4CCEF
:100BFA00F875F008EF2FFFEE33FEEC33FCEE9DECB8
:100C0A00984005FCEE9DFE0FD5F0E9E4CEFD22EDFD
:100C1A00F8F5F0EE8420D21CFEADF075F008EF2F47
:100C2A00FFED33FD4007985006D5F0F222C398FD38
:050C3A000FD5F0EA22D5
:100C3F00FAE6FB0808E6F925F0F618E6CA3AF622B6
:100C4F00D083D082F8E4937012740193700DA3A334
:100C5F0093F8740193F5828883E473740293686048
:060C6F00EFA3A3A380DF48
:100FA200EFB40A07740D120FAD740A309811A899A4
:100FB200B8130CC2983098FDA899C298B811F630AF
:070FC20099FDC299F5992287
:00000001FF
